{
  "_format": "hh-sol-artifact-1",
  "contractName": "TokenizedBallot",
  "sourceName": "contracts/TokenizedBallot.sol",
  "abi": [
    {
      "inputs": [
        {
          "internalType": "bytes32[]",
          "name": "_proposalNames",
          "type": "bytes32[]"
        },
        {
          "internalType": "contract IMyToken",
          "name": "_tokenContract",
          "type": "address"
        }
      ],
      "stateMutability": "nonpayable",
      "type": "constructor"
    },
    {
      "inputs": [
        {
          "internalType": "uint256",
          "name": "",
          "type": "uint256"
        }
      ],
      "name": "proposals",
      "outputs": [
        {
          "internalType": "bytes32",
          "name": "name",
          "type": "bytes32"
        },
        {
          "internalType": "uint256",
          "name": "voteCount",
          "type": "uint256"
        }
      ],
      "stateMutability": "view",
      "type": "function"
    },
    {
      "inputs": [],
      "name": "tokenContract",
      "outputs": [
        {
          "internalType": "contract IMyToken",
          "name": "",
          "type": "address"
        }
      ],
      "stateMutability": "view",
      "type": "function"
    },
    {
      "inputs": [
        {
          "internalType": "uint256",
          "name": "proposal",
          "type": "uint256"
        },
        {
          "internalType": "uint256",
          "name": "amount",
          "type": "uint256"
        }
      ],
      "name": "vote",
      "outputs": [],
      "stateMutability": "nonpayable",
      "type": "function"
    },
    {
      "inputs": [],
      "name": "voteFreezeBlockNumber",
      "outputs": [
        {
          "internalType": "uint256",
          "name": "",
          "type": "uint256"
        }
      ],
      "stateMutability": "view",
      "type": "function"
    },
    {
      "inputs": [
        {
          "internalType": "address",
          "name": "account",
          "type": "address"
        }
      ],
      "name": "votingPower",
      "outputs": [
        {
          "internalType": "uint256",
          "name": "",
          "type": "uint256"
        }
      ],
      "stateMutability": "view",
      "type": "function"
    },
    {
      "inputs": [],
      "name": "winnerName",
      "outputs": [
        {
          "internalType": "bytes32",
          "name": "winnerName_",
          "type": "bytes32"
        }
      ],
      "stateMutability": "view",
      "type": "function"
    },
    {
      "inputs": [],
      "name": "winningProposal",
      "outputs": [
        {
          "internalType": "uint256",
          "name": "winningProposal_",
          "type": "uint256"
        }
      ],
      "stateMutability": "view",
      "type": "function"
    }
  ],
  "bytecode": "0x608060405234801561001057600080fd5b506040516106b93803806106b983398101604081905261002f916100fc565b600080546001600160a01b0319166001600160a01b038316178155436002555b82518110156100c25760016040518060400160405280858481518110610077576100776101cb565b602090810291909101810151825260009181018290528354600181810186559483529181902083516002909302019182559190910151910155806100ba816101e1565b91505061004f565b505050610208565b634e487b7160e01b600052604160045260246000fd5b80516001600160a01b03811681146100f757600080fd5b919050565b6000806040838503121561010f57600080fd5b82516001600160401b038082111561012657600080fd5b818501915085601f83011261013a57600080fd5b815160208282111561014e5761014e6100ca565b8160051b604051601f19603f83011681018181108682111715610173576101736100ca565b60405292835281830193508481018201928984111561019157600080fd5b948201945b838610156101af57855185529482019493820193610196565b96506101be90508782016100e0565b9450505050509250929050565b634e487b7160e01b600052603260045260246000fd5b60006001820161020157634e487b7160e01b600052601160045260246000fd5b5060010190565b6104a2806102176000396000f3fe608060405234801561001057600080fd5b506004361061007d5760003560e01c806398894b121161005b57806398894b12146100f0578063b384abef146100f9578063c07473f61461010e578063e2ba53f01461012157600080fd5b8063013cf08b1461008257806355a373d6146100af578063609ff1bd146100da575b600080fd5b61009561009036600461037d565b610129565b604080519283526020830191909152015b60405180910390f35b6000546100c2906001600160a01b031681565b6040516001600160a01b0390911681526020016100a6565b6100e2610157565b6040519081526020016100a6565b6100e260025481565b61010c610107366004610396565b6101d4565b005b6100e261011c3660046103b8565b6102ad565b6100e261034a565b6001818154811061013957600080fd5b60009182526020909120600290910201805460019091015490915082565b600080805b6001548110156101cf57816001828154811061017a5761017a6103e8565b90600052602060002090600202016001015411156101bd57600181815481106101a5576101a56103e8565b90600052602060002090600202016001015491508092505b806101c781610414565b91505061015c565b505090565b806101de336102ad565b101561024a5760405162461bcd60e51b815260206004820152603160248201527f546f6b656e697a656442616c6c6f743a20747279696e6720746f20766f7465206044820152701b5bdc99481d1a185b88185b1b1bddd959607a1b606482015260840160405180910390fd5b336000908152600360205260408120805483929061026990849061042d565b925050819055508060018381548110610284576102846103e8565b906000526020600020906002020160010160008282546102a4919061042d565b90915550505050565b6001600160a01b038181166000818152600360205260408082205482546002549251630748d63560e31b81526004810195909552602485019290925291939192911690633a46b1a890604401602060405180830381865afa158015610316573d6000803e3d6000fd5b505050506040513d601f19601f8201168201806040525081019061033a9190610440565b6103449190610459565b92915050565b60006001610356610157565b81548110610366576103666103e8565b906000526020600020906002020160000154905090565b60006020828403121561038f57600080fd5b5035919050565b600080604083850312156103a957600080fd5b50508035926020909101359150565b6000602082840312156103ca57600080fd5b81356001600160a01b03811681146103e157600080fd5b9392505050565b634e487b7160e01b600052603260045260246000fd5b634e487b7160e01b600052601160045260246000fd5b600060018201610426576104266103fe565b5060010190565b80820180821115610344576103446103fe565b60006020828403121561045257600080fd5b5051919050565b81810381811115610344576103446103fe56fea2646970667358221220cd174ae3cef1dca0beb867012631945c54ed08f33735150c42e130879e67782764736f6c63430008110033",
  "linkReferences": {},
  "deployedLinkReferences": {}
}